:400000000080002011000000F9040000F904000080B500AF024A034B1B68136000F076FABC760040FA46004010B5054C237833B9044B13B10448AFF300800123237010BDAD
:400040004081FF1F00000000E8160000084B10B51BB108490848AFF300800848036803B910BD074B002BFBD0BDE81040184700BF000000004481FF1FE8160000C880FF1F16
:400080000000000080B500AF62B600F0C3FB00F0E1FD01F0F9F901F011FA00F05FFC0346002B03D100F086FE00F02CFC00F002F8F3E700BF80B500AF002000F08BFF034680
:4000C0001A46084B1A80074B1B884FF6FF72934205D0044B1B88DBB2184601F07DFA00BF80BD00BF6C81FF1F80B582B000AF786039603A680021786801F0EDFA00BF083753
:40010000BD4680BD80B584B000AFF860B9607A607A68B968F86801F0D3FA00BF1037BD4680BD00BF80B483B000AF0346FB71FEE780B487B000AF7860396000233B610023D9
:400140007B6127E07B699B007A6813441B68BB60BB68FB73BB6823F0FF03BB6014E03B695B003A6813441B781A46BB68134419463B695B003A6813445B780B703B6901338C
:400180003B61FB7B013BFB73FB7B002BE7D17B6901337B617B69132BD4D900BF1C37BD4680BC704780B582B000AF334B01221A80324B18221A70324B01221A80314B1822DD
:4001C0001A70314B02221A704FF0402308221A702E4B03221A702E4B2E4A1278D2B21A702D4B08221A802D4B41F251221A800023FB7019237B6014E0FB785B00DAB2284BEA
:400200001B78DBB203F00103DBB21343DBB203F00303FB704FF4F07001F016FA7B68013B7B607B68002B02D0FB78032BE4D17B68002B02D10320FFF775FF1A4B4FF48072F7
:400240001A80184B07221A70174B00221A70174B48221A70134B00221A70154B02221A70144A144B1B78DBB243F00303DBB2137000BF0837BD4680BD8040004082400040EC
:4002800084400040864000400043004000420040A14600400801004922420040204200402542004004400040064000400840004001400040A243004080B483B000AF0F4B21
:4002C0001B78FB710E4AFB7903F00703DBB213700C4AFB791B09DBB213700B4B10221A700A4B00221A700A4B20221A70094B44221A7000BF0C37BD4680BC7047CF0100499F
:400300006E5800406F5800401D51004072580040CB5A00407658004080B483B000AF0346FB71FB79072B0ED8FB79094A52F82330FA79074951F822201178FA790548825C55
:400340000A43D2B21A7000BF0C37BD4680BC7047EC1600000C17000080B483B000AF0346FB71FB79072B10D8FB790A4A52F82330FA79084951F822201178FA790648825CD0
:40038000D243D2B20A40D2B21A7000BF0C37BD4680BC7047EC1600000C17000080B582B000AF72B63F4A3F4B1B78DBB243F00403DBB213700023FB7113E0FA7913465B00CB
:4003C00013445B00384A13443B603B681A683B689B889BB219461046FFF786FEFB790133FB71FB79082BE8D930494FF09040FFF79FFE2F4B4FF440721A802E4B40F2031210
:400400001A802D4B2D4A1A602D4A2D4B1B78DBB243F00203DBB213702A4A2A4B1B78DBB243F00203DBB21370274A274B1B78DBB243F04003DBB21370244A244B1B78DBB28B
:4004400043F01003DBB21370082221492148FFF759FE082220492148FFF754FE082220492048FFF74FFE204A1F4B1B78DBB243F00803DBB213701D4B61221A70FFF792FE1D
:400480001A4B81221A701A4B01221A70FFF714FF0E220D491748FFF735FE00BF0837BD4680BD00BFE84600401417000050000048725800404A580040580A0140040004C4F8
:4004C0000350014013500140A0430040C2430040A803004812510040B003004822510040B803004832510040224300400048004004000840B043004080B500AF01F0B4F825
:4005000003461B680C2B00D1FEE7FEE780B586B000AF224B7B61224B3B61204B7B6135E03B691B68FB603B695B68BB603B699B683B6000237B600CE0FB681A68BB681A60A3
:40054000BB680433BB60FB680433FB607B6804337B607A683B689A42EED13B69DB683B6000237B6008E0BB6800221A60BB680433BB607B6804337B607A683B689A42F2D147
:400580003B6910333B617B69013B7B617B69002BC6D101F06FF8FFF775FDFEE701000000C817000080B582B000AF184B184A1A60184A184B1B6843F40073136000237B60D9
:4005C0000FE07B68032B04D8134A7B6852F8233000E0124B12497A6841F822307B6801337B607B682F2BECD90E4B1B78DAB20E4B1A700E4B0A4A1A60FFF7D0FE0C4B00228A
:400600001A6000BF0837BD4680BD00BF0CED00E00004FA0514ED00E000000000F90400000080FF1FBC760040C480FF1F08ED00E0C080FF1F80B582B000AF00F09DF9022026
:4006400000F0ACFA01F008F80346FB713B4A3B4B1B78DBB243F00303DBB21370384A384B1B78DBB243F00303DBB21370FB79184600F0F6FF334B4FF434421A80324B4FF612
:40068000FF721A80314B07221A7000F0E5FF0346FB712F4A2E4B1B78DBB243F00303DBB213702C4A2B4B1B78DBB243F00303DBB21370FB79184600F0D3FF274BFF221A7016
:4006C000264BFF221A70264BFF221A70254BFF221A70254BFF221A70244BFF221A70244B01221A602349002000F082FE0721002000F0A6FE00F03CFE0520FFF70DFE062018
:40070000FFF70AFE0720FFF707FE1B4A1A4B1B78DBB243F00403DBB2137000F0C1FC00F04FFD002000F0AAFD042000F0C7FD002000F0E4FD00BF0837BD4680BD9C6400407E
:400740009D6400402C6400404C6400408A6400409E6400409F6400402E6400404E6400400E6400402F6400405F6400404F64004080E100E0291000007C64004080B582B085
:4007800000AF00F069FF0346FB711C4A1B4B1B78DBB243F02003DBB2137000F003FE00F0B3FC00F031FD164A154B1B78DBB243F02003DBB21370134A124B1B78DBB243F02A
:4007C0002003DBB21370104A0F4B1B78DBB243F00103DBB21370FB79184600F041FF0B4B01221A600A4A0A4B1B78DBB263F07F03DBB2137000BF0837BD4680BD9A6400408C
:40080000BB430040AB4300407258004000E100E07C64004080B500AF064B1B78002B04D1FFF708FF034B01221A70FFF7A7FF00BF80BD00BF5C81FF1F80B485B000AF0346EE
:40084000FB71FB790133FB71FB79052B12D0FB79DB08FB73FB7903F00703012202FA03F3BB73FB7B074AD25CBB7B1340DBB2002BE7D000E000BFFB7918461437BD4680BC11
:40088000704700BFCC80FF1F80B584B000AF0346FB71FB790A4AD35CFB73FB79094AD35C184600F02BFD084B3F221A70FB79074AD35C184600F05CF900BF1037BD4680BD9F
:4008C0009C170000901700005E640040D080FF1F80B582B000AF0346FB71084B00221A70074AFB791370054B81221A70FB79184600F0C4F800BF0837BD4680BD7181FF1FD3
:400900007081FF1F80B500AF124B00221A70124BFF221A70104B1B78DBB21846FFF78CFF03461A460C4B1A700B4B1B78DBB2042B0DD8084B1B78DBB243F00103DAB2054BBF
:400940001A70054B1B78DBB2184600F097F800BF80BD00BF7181FF1F7081FF1F80B400AF044B1B78DBB203F00103DBB21846BD4680BC70477181FF1F80B582B000AF002353
:40098000FB7106E0FB79184600F040F8FB790133FB71FB79042BF5D900BF0837BD4680BD80B584B000AF0346FB71FB79134AD35CFB73FB79124AD35CBB73FB79114A52F8A7
:4009C000233009221A70FB7B0F2B01D10723FB73FB7B0D4A52F82330FA7B0B4951F822201178BA7B0A43D2B21A70FB791846FFF793FC00BF1037BD4680BD00BF601700002B
:400A0000681700004C1700007017000080B584B000AF0346FB71FB79144AD35CFB73FB79134AD35CBB73FB791846FFF795FCFB7B0F2B01D10723FB73FB7B0E4A52F8233005
:400A4000FA7B0C4951F822201178BA7BD243D2B20A40D2B21A70FB79074A52F8233008221A7000BF1037BD4680BD00BF6017000068170000701700004C17000080B582B010
:400A800000AF0346FB71FB791846FFF7FDFE104A0F4B1B78DBB243F00103DBB213700D4A0C4B1B78DBB223F00103DBB21370FB791846FFF775FF064A054B1B78DBB243F0D0
:400AC0000203DBB2137000BF0837BD4680BD00BF7C6400407258004080B582B000AF0346FB711E4A1D4B1B78DBB223F00303DBB21370FB791A4A1278D2B292B2120291B255
:400B0000184A22F81310184B1B78DBB29AB2FB79F979144830F811100A4391B2114A22F81310FB79FA790F4931F81220D24391B20C4A22F81310FB791846FFF767FF0020C1
:400B400000F0DCFB094A094B1B78DBB243F00103DBB2137000BF0837BD4680BD7C6400401F6400407481FF1F0F6400407258004080B483B000AF0346FB71064AFB7913709D
:400B8000054AFB795B08DBB2137000BF0C37BD4680BC70472A6400403A64004080B483B000AF0346FB71FB79012B08D10A4A0A4B1B78DBB223F01003DBB2137007E0064AE1
:400BC000054B1B78DBB243F01003DBB2137000BF0C37BD4680BC70477C64004080B483B000AF0346FB71FB79FA790A4931F81210094A22F81310FB79084A0021D154FB79B7
:400C0000074A002122F8131000BF0C37BD4680BC704700BF7481FF1F8C81FF1F9881FF1F8081FF1F80B582B000AF0346FB71FB791846FFF74DFE00BFFFF790FE0346002B25
:400C4000FAD1FB791846FFF7C9FF00BF0837BD4680BD00BF80B582B000AF0023FB7106E0FB791846FFF7DEFFFB790133FB71FB79042BF5D900BF0837BD4680BD80B586B0BE
:400C800000AF0346FB71FB79444AD35C7B752A237B82FB79424A32F813303B82FB79414A32F813303A8A9A4209D3FB793D4A32F813303A8AD31AFB8201237B7508E0FB794D
:400CC000384A32F813203B8AD31AFB8200237B757B7D002B18D1FB8A142B15D9FB79324AD35C042B08D9FB791846FFF777FFFB792D4A0021D1543AE0FB792B4AD25C013213
:400D0000D1B2294AD15432E0FA8A7B8A9A4205D9FB8A132B2BD87B7D002B28D1FB79214A32F813301B02FB60FB79204AD35C1A46FB681343FB603B8AFA681344FB60FB79CF
:400D4000184A32F813301A46FB689B1AFB60FB79FA68120A91B2134A22F81310FB79FA68D1B2124AD154FB790F4A0021D154FA8A7B8A9A4208D97B7D002B05D0FB790C490E
:400D8000FA8A21F8132004E0FB79094A002122F8131000BF1837BD4680BD00BF9C1700007481FF1F8C81FF1FA481FF1F9881FF1F8081FF1F80B582B000AF0023FB7118E026
:400DC000FB79DB08BB71FB7903F00703012202FA03F37B71BB790A4AD25C7B791340DBB2002B03D0FB791846FFF748FFFB790133FB71FB79042BE3D900BF0837BD4680BDB6
:400E0000CC80FF1F80B485B000AF0346FB710B46BB711346BB80FF23BB730023BB81FB795B00154A1344BB600023FB731AE0FB7B5B00BA6813441B88BA889A420FD2FB7B2E
:400E40005B00BA6813441B88BA899A4207D2FB7BBB73FB7B5B00BA6813441B88BB81FB7B0133FB73FA7BBB799A42E0D3BB7B18461437BD4680BC70478081FF1F90B488B076
:400E800000AF0446084611461A462346FB710346BB710B467B7113467B800023FB770023BB77BB795B00494A1344BB61FB79002B02D0FB79013BFB77FB790133BB77FB79F9
:400EC0005B00BA6913441A88414B5A80FB79002B0AD13F4B00221A80BB7F5B00BA6913441A883B4B9A801DE0FA797B79013B9A420AD1FB7F5B00BA6913441A88344B1A80A3
:400F0000334B00229A800DE0FB7F5B00BA6913441A882F4B1A80BB7F5B00BA6913441A882B4B9A802A4B1B883A8D9A4207D2284B1A883B8DD31A9AB2254B1A8002E0244BBF
:400F400000221A80224B5A883B8DD31A9AB2204B5A801F4B9B883A8D9A4207D21C4B9A883B8DD31A9AB21A4B9A8002E0184B00229A80174B9B881A46154B1B88D31A7B61DC
:400F8000134B1B881A46124B5B881344104A928813443B617B691B021A463B6992FBF3F3FA79120213443B61B7F902301A463B6902FB03F33B613B6903F5FE431B0CFB73F9
:400FC000FB7B18462037BD4690BC70478081FF1F6481FF1F90B587B002AF0346FB7100237B7305233B735422397B7B7B1846FFF709FF0346FB72FB7AFF2B0CD04FF4C854C9
:401000002A233A7B797BF87A00932346FFF736FF0346FB8102E04FF6FF73FB81FB8918461437BD4690BD00BF80B500AF1A4B1B78DBB21846FFF750FD184B1B78DBB25BB271
:40104000002B08DA154B1B78DBB223F00103DAB2124B1A701DE0104B1B78DBB21846FFF7EBFB03461A460C4B1A700B4B1B78DBB2042B06D8084B1B78DBB21846FFF7FEFCD9
:4010800007E0064B1B78DBB223F00103DAB2034B1A7000BF80BD00BF7081FF1F7181FF1F80B500AF002000F049F8154A144B1B78DBB243F02003DBB21370114A104B1B78C1
:4010C000DBB223F00403DBB213700D4A0C4B1B78DBB243F00803DBB213700A4A094B1B78DBB223F01803DBB21370064A054B1B78DBB243F01003DBB2137000BF80BD00BF46
:4011000041580040CF5A004080B400AF094A094B1B78DBB243F00203DBB21370064A064B1B78DBB243F00203DBB2137000BFBD4680BC7047A7430040B743004080B483B0F2
:4011400000AF0346FB711749164B1B78DBB25BB223F003035AB297F9073003F003035BB213435BB2DBB20B70FB79012B0AD10E4B0E4A1278D2B21A700D4B0E4A1278D2B23E
:401180001A7009E0084B0C4A1278D2B21A70084B0A4A1278D2B21A7000BF0C37BD4680BC704700BF4158004032460040110100493346004015010049AF010049B701004987
:4011C00080B500AF0E4B14221A700E4B00221A700C4A0C4B1B78DBB243F00403DBB21370084A084B1B78DBB243F00203DBB21370002000F023F800F091F800BF80BD00BF6A
:401200002C5800402D58004080B400AF094A094B1B78DBB243F00803DBB21370064A064B1B78DBB243F00803DBB2137000BFBD4680BC7047A8430040B843004080B483B09C
:4012400000AF0346FB710C4A0B4B1B78DBB223F00203DBB213700849074B1B78DAB2FB7903F00203DBB21343DBB20B7000BF0C37BD4680BC704700BF2C58004080B582B01B
:4012800000AF0346FB710C4A0B4B1B78DBB223F00403DBB213700849074B1B78DAB2FB7903F00403DBB21343DBB20B7000F036F800BF0837BD4680BD2D58004080B582B031
:4012C00000AF0346FB710C4A0B4B1B78DBB223F00C03DBB213700849074B1B78DAB2FB7903F00C03DBB21343DBB20B7000F016F800BF0837BD4680BD2C58004080B483B002
:4013000000AF0346FB71044AFB79137000BF0C37BD4680BC704700BF835B004080B483B000AF104B1B78DBB203F00C035B08FB710D4B1B78DBB203F00403DBB2002B02D0D1
:40134000FB790133FB71094AFB7903F1924303F59C731B78DBB2137000BF0C37BD4680BC704700BF2C5800402D5800400B46004080B500AF00F002F800BF80BD80B582B01D
:4013800000AF0023FB7106E0FB791846FEF7E4FFFB790133FB71FB79072BF5D900BF0837BD4680BD80B400AF094A094B1B78DBB243F00103DBB21370064A064B1B78DBB2E7
:4013C00043F00103DBB2137000BFBD4680BC7047A2430040B243004080B483B000AF0346FB7101BE00BF0C37BD4680BC704700BF80B584B000AF03463960FB710F4B1B6813
:40140000FB60FB791F2B02D90020FFF7E5FFFB7903F01F0310339B00FA6813441B68BB60FB7903F01F0310339B00FA6813443A681A60BB6818461037BD4680BD08ED00E0E7
:4014400080B582B000AF03460A46FB711346BB71BB79072B02D90020FFF7BEFFFB791F2B02D90020FFF7B8FFFB7903F01F0303F1604303F56443BA795201D2B21A7000BF40
:401480000837BD4680BD00BF80B400AF094A094B1B78DBB243F00203DBB21370064A064B1B78DBB243F00203DBB2137000BFBD4680BC7047A2430040B243004080B500AF00
:4014C000064B1B78002B04D100F00AF8034B01221A7000F043F800BF80BD00BF6A81FF1F80B582B000AF1B4B1B78DBB223F03F03FB71184AFB7943F00903DBB21370164A4A
:40150000154B1B78DBB243F00103DBB21370642000F034F8642000F04FF8322000F05CF8002000F069F800F097F80346BB710A4A094B1B78DBB243F01003DBB21370BB793C
:40154000184600F08DF800F029F800BF0837BD4680BD00BF7F6400409B64004080B400AF054A054B1B78DBB263F07F03DBB2137000BFBD4680BC70477F64004080B483B062
:4015800000AF0346FB71044AFB79137000BF0C37BD4680BC704700BF0B64004080B500AF01E000F045F800F037F8034603F01003002BF6D100BF80BD80B483B000AF03466F
:4015C000FB71044AFB79137000BF0C37BD4680BC704700BF4B64004080B483B000AF0346FB71044AFB79137000BF0C37BD4680BC704700BF2B64004080B483B000AF03469F
:40160000FB71044AFB79137000BF0C37BD4680BC704700BF8B64004080B400AF034B1B78DBB21846BD4680BC704700BF6B64004080B400AF034B1B78DBB21846BD4680BCB2
:40164000704700BF5B6400400230800803D000BF01380046FCD17047EFF3108072B6704780F31088704700BF014B1868704700BF3881FF1F0E4B70B51E460E4C0025E41A5C
:40168000A410A54204D056F8253098470135F8E700F088F8084B094C1E46E41AA4100025A54204D056F8253098470135F8E770BDB0170000B0170000B0170000B81700002E
:4016C00010B5431E0A44914204D011F8014B03F8014FF8E710BD03460244934202D003F8011BFAE770470000000000003C5100403C5100403C5100403C5100403C5100409D
:401700001C510040CB5A00409B5A00400102040810100110005100401000405100403000C05100401000F0510040100000000140001000140140000800400140000A004C09
:4017400001400002005001402000000018500040195000401A5000401B5000401C50004003030303030000000102040810000000065200400E520040165200401E52004065
:40178000265200402E520040365200407E52004030312926220000003F0000000000000000430000F8B500BFF8BC08BC9E4670474D000000A5050000F8B500BFF8BC08BC2B
:4017C0009E46704729000000D8170000C880FF1F7800000070000000000000001F0000000303030303000000000000000000000000000000000000000000000000000000BA
:401800000000000000000000A117000000000000000000000000000000000000000000000000000000000000000000000000000000000000000000000000000000000000F0
:401840000000000000000000D880FF1F00000000000000000000000000000000000000000000000000000000000000000000000000000000000000000000000000000000F2
:401880000000000000000000000000000000000000000000000000000000000000000000000000000000000000000000000000000000000000000000000000000000000028
:4018C00000000000000000000000000000000000000000000000000000000000000000000000000000000000000000000000000000000000000000000000000000000000E8
:4019000000000000000000000000000000000000000000000000000000000000000000000000000000000000000000000000000000000000000000000000000000000000A7
:401940000000000000000000000000000000000000000000000000000000000000000000000000000000000000000000000000000000000000000000000000000000000067
:020000040003F7
:0200000480007A
:40000000015200400964004001010140010501405B0A0140400B0140460C0140330D01404D0E0140210F014004400140034201400143014005450140054601400347014071
:40004000014801400349014003500140015101401E1F0AFF0EFF0FFF1EFF1FFF2EFF2FFF8A1F8B0DE601EE021401240130013201380A4062450446504702481949FF4AFF97
:400080004BFF4C024D204F055110560258045A045B045E085F0160406140628064806680813B820283048402851086048701897F8B808D048E019006911F93209404953DD8
:4000C0009602970299C09B029D809F40A126A201A319A604A702A980AD08AF01B13CB206B3C0B401B503BE10C040C105C5D0C612C80EC9FFCAFFCBFFCDA0CF04D018D4051E
:40010000D804D904DA04DB04DD11DF01E040E2C0E440E540E6C0E8C0EAC0ECC0EEC0040207110B200EA0102016401704190A1E282418250327182E042F49350136503708D5
:400140003C103D023E803F044120470148284D014F8050085310564057605D015E4872807A408C048E40900692049386940899019B059D0A9E809F10A120A240A308A50223
:40018000A610A720AD01B401B640C0B0C234C434CAF0CCF0CEF0D084D214D6D0DE0101010205040205020D0313041402180219101C011D032303271C2E0230023103320113
:4001C000330834023510360437043F014003410249FF4AFF4BFF4C024D0C4EF85217580459045A045B045C105F01624863A168F06AF06CF06EF09702A701AD01AF02B1032D
:40020000BF01C003C102C70AC9FFCAFFCBFFCC03CD0CCEF4D608D904DA04DB0CDF01E248E3A1E8F0EAF0ECF0EEF0050207100D200E2115401D281E81210124052760298832
:400240002F6032083680372139803A803C803F054128452852085A4062806C116D406E046F0C7580798082809387942899019B019E809F50A040A502A690C030C2E0C480D5
:40028000CACACCB2CED0D066D608D808DE08E40440234106452648035A045F01610C62F0630C650C670C6840694C6A406B4C6C906D586F0C8013811582088403852A8A022D
:4002C0008B0C8C038E149002910F92019340960298109A049C049D3C9E10A201A33FA803AB30AF80B002B170B20CB303B410B50CB601B780BE14BF15C035C101C620C70695
:40030000C818D280D804D904DA04DB04DC10DD10DF01E10CE2F0E30CE50CE70CE840E94CEA40EB4CEC90ED58EF0C042805410D020E200F05168017101C941D411F40260637
:4003400027052C022F48350136803F25401447444A044B074E02571874028004C0F0C2F0C450CAB0CC90CEE0D056D21432408240CC10E680A240AE40EE40A2401108500857
:400380008140C408D4049140B408B504EC08EE0239409140CE08A2407A40A240DE4000030C030E0300030000000B0B0000001000000202000200000000001F000000000081
:4003C00000000000000000000000000000000000000000000000000000000000000000000000000000000000000000000000000000000000000000000000000000000000FD
:4004000000000000000000000000000000000000000000000000000000000000000000000000000000000000000000000000000000000000000000000000000000000000BC
:40044000000000000000000000000000000000000000000000000000000000000000000000000000000000000000000000000000000000000000000000000000000000007C
:40048000000000000000000000000000000000000000000000000000000000000000000000000000000000000000000000000000000000000000000000000000000000003C
:0200000490006A
:0400000000004005B7
:0200000490105A
:04000000BC90ACAF55
:0200000490303A
:02000000967AEE
:0200000490402A
:4000000000000000000000000000000000000000000000000000000000000000000000000000000000000000000000000000000000000000000000000000000000000000C0
:400040000000000000000000000000000000000000000000000000000000000000000000000000000000000000000000000000000000000000000000000000000000000080
:400080000000000000000000000000000000000000000000000000000000000000000000000000000000000000000000000000000000000000000000000000000000000040
:4000C0000000000000000000000000000000000000000000000000000000000000000000000000000000000000000000000000000000000000000000000000000000000000
:0200000490501A
:0C00000000012E16106900012E20A6E35E
:00000001FF