:400000000080002011000000710300007103000008B5044B1A6803F53F5302331A6000F0AFF900BFFA46004010B5054C237833B9044B13B10448AFF300800123237010BDE7
:400040004081FF1F00000000A80C0000084B10B51BB108490848AFF300800848036803B910BD074B002BFBD0BDE81040184700BF000000004481FF1FA80C0000C880FF1FAA
:400080000000000008B562B600F070FB00F09CFB00F0CEFA00F092FC00F010FA0028FBD100F042FC00F0EEFB00F0C2FAF4E700BFFEE700BFF0B40022174611E050F8276091
:4000C000F3B226F0FF0608E001EB420511F812406D78A5550132013BDBB2002BF4D101370F2FEBD9F0BC70470C4B1B78DBB203F007010B4A11701B09013213701022094BBA
:400100001A70002203F273631A70202203F263231A704422A3F25D231A707047CF0100496E580040FD51004008B50A46002100F0B2FD08BD38B50122254B1A8018232549B9
:400140000B7002310A80244A13700222234B1A7008224FF040231A70032103F5007319701F4B1B78DBB21F490B701F4B1A8041F25122023B1A80002419250CE01B4B1B7897
:4001800003F0010343EA440404F003044FF4F07000F03AFD013D0DB1032CEFD115B90320FFF786FF124B4FF480721A8007221A70002210490A704820023108701A70022222
:4001C000033B1A700C4A137843F00303137038BD8040004082400040864000400043004008010049A146004022420040254200400440004006400040A243004008B500F07A
:400200003FFD08BD072808D8044B53F82020184490F8201013780B4313707047AC0C0000072809D8054B53F82020184490F82010137823EA01031370704700BFAC0C0000A9
:4002400038B572B6394A137843F00403137000240BE0374863001A19510001440A46898D906AFFF761FF0134E4B2082CF1D900240BE02F49A3001819420088188022416ED7
:40028000006EFFF7BBFF0134E4B2002CF1D029494FF09040FFF70EFF4FF44072264B1A8040F20322243B1A80244A03F532430C331A60234A137843F0020313701032137880
:4002C00043F0020313701F4C237843F040032370A2F58632513A137843F010031370082219491A48FFF78AFF082219491948FFF785FF082218491948FFF780FF184A1378E4
:4003000043F008031370174D61232B70FFF712FF81232B700122144B1A70FFF7E5FE0E2221461248FFF76AFF38BD00BFE8460040AC0C00004000004870580040040004C4C8
:4003400003500140A043004098030048F2510040A003004812510040A803004822510040224300400048004004000840B043004008B500F059FC03680C2B00D1FEE7FEE741
:4003800008B5104E104D16E029686B68AC68002204E051F8040B43F8040B0432A242F8D1E868002203E0002143F8041B04328242F9D11035013E002EE6D100F03BFCFFF7B2
:4003C00061FEFEE701000000940D000008B5104A104B1A60104A136843F40073136000230AE0032B03D80D4A52F8231000E00C490C4A42F8231001332F2BF2D90A4B1A7817
:400400000A4B1A70074A0A4B1A60FFF719FF08BD0004FA050CED00E014ED00E000000000710300000080FF1FBC760040C080FF1F08ED00E010B500F0EFFB0446134A1378A5
:4004400043F02003137000F0A1FB00F0C5FA00F01BFB0F4A137843F010031370103A137843F01003137002F5A6520532137843F001031370204600F0D3FB0122054B1A609B
:40048000054A137843F08003137010BD9A640040BB43004000E100E07C6400400130C0B2052808D0C20800F0070101238B4002498A5C1342F2D07047CC80FF1F024B187860
:4004C00000F00100704700BF6181FF1F10B50B4B195C1A18147A03EB80031B6909221A700F2900D10721054A02EB8102526A137823431370FFF786FE10BD00BF180D000050
:4005000070B505460B4B1C5C03441E7AFFF788FE0F2C00D10724074800EB8404626A137823EA0603137000EB8500036908221A7070BD00BF180D000010B5002404E0204665
:40054000FFF7DEFF0134E4B2042CF8D910BD00BF10B50E4A137803F0FC0313700C4B1B781B020C4921F810306D3A12781343DB4321F81030FFF7C4FF002000F0A1FA064ACC
:40058000137843F00103137010BD00BF7C6400401F6400406481FF1F70580040024B187040081033187070472A64004010B50446074B034493F8440000F082FA0322054BB7
:4005C0001A70054B1C442079FFF7E8FF10BD00BF180D00005E640040CC80FF1F38B50546FFF7E4FF084C237843F001032370074A137803F0FE0313702846FFF767FF2378AC
:4006000043F00203237038BD7C6400407058004008B5054B00221A70044A107081221A70FFF7DCFF08BD00BF6181FF1F6081FF1F10B500220A4B1A700A4CFF232370207861
:40064000FFF72CFF20702378DBB2042B07D8044A137843F0010313702078FFF7BFFF10BD6181FF1F6081FF1F012805D1054A137803F0EF0313707047024A137843F01003D3
:40068000137070477C64004038B5FFF755FF0220FFF7EAFF00F0C0FA2E4A137843F0030313700132137843F00303137000F0B8FA4FF43442284B1A804FF6FF7520331D80B4
:4006C00007243E331C7000F0A7FA244A137843F0030313700132137843F00303137000F09FFAFF231E4A157020321370403A13702132137030321370103A1370012203F109
:40070000E02381331A601749002000F04FFA2146002000F05FFA00F035FA0520FFF772FD0620FFF76FFD2046FFF76CFD0E4A137843F00403137000F089F900F0E1F900200D
:4007400000F0F4F9042000F001FA002000F0B8F938BD00BF9C6400402C6400409E6400402E640040B10800007C64004008B5054B1B7823B9FFF788FF0122024B1A70FFF732
:4007800059FE08BD5C81FF1F054B33F81020054B23F810200023044A1354044A135470476481FF1F8081FF1F7881FF1F7081FF1F10B50446FFF72CFFFFF780FE0028FBD1B8
:4007C0002046FFF7E1FF10BD10B5002404E02046FFF7EEFF0134E4B2042CF8D910BD00BF70B50446224B33F81030224A32F810108B4203D35D1AADB2012602E0CD1AADB2BD
:40080000002686B9142D0ED91B4B1B5D042B06D92046FFF7B9FF0022174B1A5517E00133154A135513E0142D02D9132D0FD876B91248025D42EA012213445B1AC3F30F2127
:400840000C4A22F81410035500220B4B1A55142D09D946B1FF2D03D9FF22094B1A5570BD074B1D5570BD0022054B1A5570BD00BF6481FF1F8081FF1F9081FF1F7881FF1F4C
:400880007081FF1F10B500240DE0E20804F0070101238B4005498A5C134202D02046FFF79FFF0134E4B2042CEFD910BDCC80FF1F10B5114B1878FFF74BFE104B1B7813F04E
:4008C000800F05D00D4A137803F0FE03137010BD094C2078FFF7E2FD20702378DBB2042B03D82078FFF77AFE10BD044A137803F0FE03137010BD00BF6081FF1F6181FF1F3C
:40090000024A137843F08003137070477F640040014B1870704700BF0B640040014B1870704700BF4B640040014B1870704700BF2B640040014B1870704700BF8B64004009
:40094000014B1878704700BF6B640040014B1878704700BF5B64004008B501E0FFF7F6FFFFF7EEFF10F0100FF8D108BD10B5114A137803F0C00343F0090313700E4C237894
:4009800043F0010323706420FFF7C2FF6420FFF7C5FF3220FFF7C8FF0020FFF7CBFF00F03BF9237843F01003237000F039F9FFF7D3FF10BD7F6400409B64004008B5054B47
:4009C0001B7823B9FFF7D2FF0122024B1A70FFF797FF08BD5D81FF1F054A137843F0040313701032137843F004031370704700BFA74300400F490B7803F0FC0200F00303F7
:400A000013430B7001280AD10B4B1B78DBB20B4A13700B4B1B78DBB2013213707047094B1B78DBB2054A1370074B1B78DBB20132137070474258004012010049344600409B
:400A400016010049B1010049B901004908B50020FFF7D0FF0B4B1A7842F020021A701A7802F0FB021A701A7842F008021A7003F295231A7802F0E7021A701A7842F01002D3
:400A80001A7008BD42580040054A137843F0040313701032137843F004031370704700BFA8430040054B1A7802F0FD021A701A7800F0020010431870704700BF2858004059
:400AC000014B1870704700BF825B0040094B1B7803F00C035B08084A127812F0040F00D0013303F1924393F82831DBB2034A1370704700BF28580040295800400A460040BD
:400B000008B51422084B1A700133002018701A7842F004021A701A7842F002021A70FFF7C1FFFFF7D3FF08BD2858004008B5064B1A7802F0FB021A701A7800F0040010436E
:400B40001870FFF7C3FF08BD2958004008B5064B1A7802F0F3021A701A7800F00C0010431870FFF7B3FF08BD2858004010B5002404E02046FFF754FB0134E4B2072CF8D9C1
:400B800010BD00BF08B5FFF7F1FF08BD054A137843F0010313701032137843F001031370704700BFA243004001BE704770B504460E46074B1D681F2802D90020FFF7F4FF50
:400BC00004F01F04103455F8240045F8246070BD08ED00E038B504460D46072902D90020FFF7E2FF1F2C02D90020FFF7DDFF04F01F0000F1604000F564406D01EDB2057003
:400C000038BD00BF000000000230800803D000BF01380046FCD17047EFF3108072B6704780F31088704700BF014B1868704700BF3881FF1F0E4B70B51E460E4C0025E41A67
:400C4000A410A54204D056F8253098470135F8E700F08EF8084B094C1E46E41AA4100025A54204D056F8253098470135F8E770BD7C0D00007C0D00007C0D0000840D00006A
:400C800010B5431E0A44914204D011F8014B03F8014FF8E710BD03460244934202D003F8011BFAE770470000000000002C5100402C5100402C5100402C5100402C51004037
:400CC000FC510040D35A0040935A00400810204080100110005100401000305100404000C0510040100000000140800A000B0140000500140140000800400140000A004C61
:400D0000014000020050014020000000800A01401803004880000000020202020200000008102040800000001350004014500040155000401650004017500040065200403E
:400D40000E520040165200401E520040265200402E520040365200407E520040C8C8C8C8C8000000000000000000000003430000F8B500BFF8BC08BC9E4670474D00000031
:400D8000CD030000F8B500BFF8BC08BC9E46704729000000A80D0000C880FF1F780000005800000000000000000000001F0000000B0B0B0B0B00000000000000000000007A
:400DC0000000000000000000000000000000000000000000000000006D0D000000000000000000000000000000000000000000000000000000000000000000000000000079
:400E0000000000000000000000000000000000000000000000000000D880FF1F0000000000000000000000000000000000000000000000000000000000000000000000003C
:400E40000000000000000000000000000000000000000000000000000000000000000000000000000000000000000000000000000000000000000000000000000000000072
:400E80000000000000000000000000000000000000000000000000000000000000000000000000000000000000000000000000000000000000000000000000000000000032
:400EC00000000000000000000000000000000000000000000000000000000000000000000000000000000000000000000000000000000000000000000000000000000000F2
:400F000000000000000000000000000000000000000000000000000000000000000000000000000000000000000000000000000000000000000000000000000000000000B1
:020000040003F7
:0200000480007A
:40000000015200400964004001010140010301401C0A0140430B0140460C0140330D01404D0E0140210F01400640014003410140024501400A460140035001400151014095
:4000400016F80AFF0EFF0FFF1EFF1FFF2EFF2FFF8A1F8B0DE601E2011401240130013201380A4062450446504702481949FF4AFF4BFF4C024D204F055110560258045A0445
:400080005B045E085F016040614062806480668007110B200D200E600F0210201704190A1C041E202418250327182E042F493501365037083C103D023E803F0441204602F6
:4000C000470148284D0150085310560257215C045D015F4072807A408240924493C69408968099019B059D0A9E809F10A120A240A308A502A610A720B140B220B340B680B7
:40010000C0A0C2F4C424CAF0CCF0CEF0D094D204D6D0DE01E60101010205040205020D0313041402180219101C011D032303271C2E023002310332013308340235103604F2
:4001400037043F014003410249FF4AFF4BFF4C024D0C4EF85217580459045A045B045C105F01624863A168F06AF06CF06EF09702A701AD01AF02B103BF01C003C102C70A86
:40018000C9FFCAFFCBFFCC03CD0CCEF4D608D904DA04DB0CDF01E248E3A1E8F0EAF0ECF0EEF0050207100D200E2115401D281E81220225402620276029882F6032083680C7
:4001C000372139803A803C803F054128452852085A8062806C106D406E446F0C7580798082029387942899019B019E809F50A040A502A690C030C2E0C480CACACCB2CED024
:40020000D066D608D808DE0840234106452648035A045F01610C62F0630C650C670C6840694C6A406B4C6C906D586F0C8013811582088403852A8A028B0C8C038E149002EB
:40024000910F92019340960298109A049C049D3C9E10A201A33FA803AB30AF80B002B170B20CB303B410B50CB601B780BE14BF15C035C101C620C706C818D280D804D90484
:40028000DA04DB04DC10DD10DF01E10CE2F0E30CE50CE70CE840E94CEA40EB4CEC90ED58EF0C042805410D020E200F05168017101C941D411F40260627052C022F4835019C
:4002C00036803F25401447444A044B074E02571874028004C0F0C2F0C450CAB0CC90CEE0D056D214324072108240CC10DC80E68082109610E2805008D40403083940830879
:400300009140B008B540C002CE08E802EC0400030C030E0300030000003B000402100401007F008000040100001F0220043D020206C00002008001400026001900000402F9
:400340000080000000080001003C06C00103000000000000000010004001000000D010202AFFFFFF00A00004180000000500000004040404001100014000C0004040C00053
:40038000C000C000C000C000000000000000000000000000000000000000000000001000000B0B00000000000002FA00020000000000000000000000000000000000000019
:4003C00000000000000000000000000000000000000000000000000000000000000000000000000000000000000000000000000000000000000000000000000000000000FD
:4004000000000000000000000000000000000000000000000000000000000000000000000000000000000000000000000000000000000000000000000000000000000000BC
:40044000000000000000000000000000000000000000000000000000000000000000000000000000000000000000000000000000000000000000000000000000000000007C
:40048000000000000000000000000000000000000000000000000000000000000000000000000000000000000000000000000000000000000000000000000000000000003C
:0200000490006A
:0400000000004005B7
:0200000490105A
:04000000BC90ACAF55
:0200000490303A
:02000000CCD260
:0200000490402A
:4000000000000000000000000000000000000000000000000000000000000000000000000000000000000000000000000000000000000000000000000000000000000000C0
:400040000000000000000000000000000000000000000000000000000000000000000000000000000000000000000000000000000000000000000000000000000000000080
:400080000000000000000000000000000000000000000000000000000000000000000000000000000000000000000000000000000000000000000000000000000000000040
:4000C0000000000000000000000000000000000000000000000000000000000000000000000000000000000000000000000000000000000000000000000000000000000000
:0200000490501A
:0C00000000012E16106900012E1BDD3BD4
:00000001FF